{
  "address": "0xe7f1725E7734CE288F8367e1Bb143E90bb3F0512",
  "abi": [
    {
      "anonymous": false,
      "inputs": [
        {
          "indexed": true,
          "internalType": "address",
          "name": "user",
          "type": "address"
        },
        {
          "indexed": true,
          "internalType": "address",
          "name": "manager",
          "type": "address"
        },
        {
          "indexed": false,
          "internalType": "uint256",
          "name": "amount",
          "type": "uint256"
        }
      ],
      "name": "TokensDeposited",
      "type": "event"
    },
    {
      "anonymous": false,
      "inputs": [
        {
          "indexed": true,
          "internalType": "address",
          "name": "manager",
          "type": "address"
        },
        {
          "indexed": false,
          "internalType": "uint256",
          "name": "expiry",
          "type": "uint256"
        }
      ],
      "name": "TradingEnabled",
      "type": "event"
    },
    {
      "anonymous": false,
      "inputs": [
        {
          "indexed": true,
          "internalType": "address",
          "name": "manager",
          "type": "address"
        }
      ],
      "name": "TradingStopped",
      "type": "event"
    },
    {
      "inputs": [
        {
          "internalType": "address",
          "name": "manager",
          "type": "address"
        },
        {
          "internalType": "uint256",
          "name": "durationInDays",
          "type": "uint256"
        }
      ],
      "name": "createTrust",
      "outputs": [],
      "stateMutability": "nonpayable",
      "type": "function"
    },
    {
      "inputs": [
        {
          "internalType": "address",
          "name": "token",
          "type": "address"
        },
        {
          "internalType": "uint256",
          "name": "amount",
          "type": "uint256"
        }
      ],
      "name": "depositTokens",
      "outputs": [],
      "stateMutability": "nonpayable",
      "type": "function"
    },
    {
      "inputs": [
        {
          "internalType": "address",
          "name": "user",
          "type": "address"
        }
      ],
      "name": "stopTrading",
      "outputs": [],
      "stateMutability": "nonpayable",
      "type": "function"
    },
    {
      "inputs": [
        {
          "internalType": "address",
          "name": "tokenIn",
          "type": "address"
        },
        {
          "internalType": "address",
          "name": "tokenOut",
          "type": "address"
        },
        {
          "internalType": "uint256",
          "name": "amountIn",
          "type": "uint256"
        }
      ],
      "name": "tradeTokens",
      "outputs": [
        {
          "internalType": "uint256",
          "name": "amountOut",
          "type": "uint256"
        }
      ],
      "stateMutability": "nonpayable",
      "type": "function"
    },
    {
      "inputs": [
        {
          "internalType": "address",
          "name": "",
          "type": "address"
        }
      ],
      "name": "trusts",
      "outputs": [
        {
          "internalType": "address",
          "name": "manager",
          "type": "address"
        },
        {
          "internalType": "uint256",
          "name": "expiry",
          "type": "uint256"
        },
        {
          "internalType": "bool",
          "name": "isActive",
          "type": "bool"
        }
      ],
      "stateMutability": "view",
      "type": "function"
    }
  ],
  "transactionHash": "0xe0ef94bcb8da9dfe2e4604c2e01e31d6828df6bbd48357884f67bd8c320e9f0f",
  "args": [],
  "numDeployments": 1,
  "solcInputHash": "fc383aef190a73a230ba7d494daf0cc5",
  "bytecode": "0x6080604052737a250d5630b4cf539739df2c5dacb4c659f2488d6000806101000a81548173ffffffffffffffffffffffffffffffffffffffff021916908373ffffffffffffffffffffffffffffffffffffffff160217905550348015606357600080fd5b506114c2806100736000396000f3fe608060405234801561001057600080fd5b50600436106100575760003560e01c806304663d401461005c57806333a9efa21461007857806366168bd7146100a857806393322f57146100c45780639fe60ba7146100e0575b600080fd5b61007660048036038101906100719190610c52565b610112565b005b610092600480360381019061008d9190610cb5565b610260565b60405161009f9190610d17565b60405180910390f35b6100c260048036038101906100bd9190610d32565b61064d565b005b6100de60048036038101906100d99190610d32565b6108f1565b005b6100fa60048036038101906100f59190610c52565b610b89565b60405161010993929190610d9c565b60405180910390f35b600160008273ffffffffffffffffffffffffffffffffffffffff1673ffffffffffffffffffffffffffffffffffffffff1681526020019081526020016000206001015442101561025d576000600160008373ffffffffffffffffffffffffffffffffffffffff1673ffffffffffffffffffffffffffffffffffffffff16815260200190815260200160002060020160006101000a81548160ff021916908315150217905550600160008273ffffffffffffffffffffffffffffffffffffffff1673ffffffffffffffffffffffffffffffffffffffff16815260200190815260200160002060000160009054906101000a900473ffffffffffffffffffffffffffffffffffffffff1673ffffffffffffffffffffffffffffffffffffffff167f3d48eb77d99c39094f952491876fa684edd58af9778ffa994b431f9d4d081e1660405160405180910390a25b50565b60008082116102a4576040517f08c379a000000000000000000000000000000000000000000000000000000000815260040161029b90610e30565b60405180910390fd5b60008490508073ffffffffffffffffffffffffffffffffffffffff166323b872dd3330866040518463ffffffff1660e01b81526004016102e693929190610e50565b6020604051808303816000875af1158015610305573d6000803e3d6000fd5b505050506040513d601f19601f820116820180604052508101906103299190610eb3565b508073ffffffffffffffffffffffffffffffffffffffff1663095ea7b360008054906101000a900473ffffffffffffffffffffffffffffffffffffffff16856040518363ffffffff1660e01b8152600401610385929190610ee0565b6020604051808303816000875af11580156103a4573d6000803e3d6000fd5b505050506040513d601f19601f820116820180604052508101906103c89190610eb3565b506000600267ffffffffffffffff8111156103e6576103e5610f09565b5b6040519080825280602002602001820160405280156104145781602001602082028036833780820191505090505b509050858160008151811061042c5761042b610f38565b5b602002602001019073ffffffffffffffffffffffffffffffffffffffff16908173ffffffffffffffffffffffffffffffffffffffff1681525050848160018151811061047b5761047a610f38565b5b602002602001019073ffffffffffffffffffffffffffffffffffffffff16908173ffffffffffffffffffffffffffffffffffffffff168152505060008060009054906101000a900473ffffffffffffffffffffffffffffffffffffffff1673ffffffffffffffffffffffffffffffffffffffff1663d06ca61f86846040518363ffffffff1660e01b8152600401610513929190611025565b600060405180830381865afa158015610530573d6000803e3d6000fd5b505050506040513d6000823e3d601f19601f820116820180604052508101906105599190611194565b905060008060009054906101000a900473ffffffffffffffffffffffffffffffffffffffff1673ffffffffffffffffffffffffffffffffffffffff166338ed173987846001815181106105af576105ae610f38565b5b60200260200101518633426040518663ffffffff1660e01b81526004016105da9594939291906111dd565b6000604051808303816000875af11580156105f9573d6000803e3d6000fd5b505050506040513d6000823e3d601f19601f820116820180604052508101906106229190611194565b90508060018151811061063857610637610f38565b5b60200260200101519450505050509392505050565b33600160008273ffffffffffffffffffffffffffffffffffffffff1673ffffffffffffffffffffffffffffffffffffffff16815260200190815260200160002060020160009054906101000a900460ff166106dd576040517f08c379a00000000000000000000000000000000000000000000000000000000081526004016106d490611283565b60405180910390fd5b600160008273ffffffffffffffffffffffffffffffffffffffff1673ffffffffffffffffffffffffffffffffffffffff168152602001908152602001600020600101544210610761576040517f08c379a0000000000000000000000000000000000000000000000000000000008152600401610758906112ef565b60405180910390fd5b600082116107a4576040517f08c379a000000000000000000000000000000000000000000000000000000000815260040161079b90610e30565b60405180910390fd5b8273ffffffffffffffffffffffffffffffffffffffff166323b872dd3330856040518463ffffffff1660e01b81526004016107e193929190610e50565b6020604051808303816000875af1158015610800573d6000803e3d6000fd5b505050506040513d601f19601f820116820180604052508101906108249190610eb3565b50600160003373ffffffffffffffffffffffffffffffffffffffff1673ffffffffffffffffffffffffffffffffffffffff16815260200190815260200160002060000160009054906101000a900473ffffffffffffffffffffffffffffffffffffffff1673ffffffffffffffffffffffffffffffffffffffff163373ffffffffffffffffffffffffffffffffffffffff167fcbc4a4091b012bb1329c38bbbb15455f5cac5aa3673da0a7f38cd61a4f495517846040516108e49190610d17565b60405180910390a3505050565b600073ffffffffffffffffffffffffffffffffffffffff16600160003373ffffffffffffffffffffffffffffffffffffffff1673ffffffffffffffffffffffffffffffffffffffff16815260200190815260200160002060000160009054906101000a900473ffffffffffffffffffffffffffffffffffffffff1673ffffffffffffffffffffffffffffffffffffffff16146109c2576040517f08c379a00000000000000000000000000000000000000000000000000000000081526004016109b99061135b565b60405180910390fd5b600073ffffffffffffffffffffffffffffffffffffffff168273ffffffffffffffffffffffffffffffffffffffff1603610a31576040517f08c379a0000000000000000000000000000000000000000000000000000000008152600401610a28906113c7565b60405180910390fd5b60006201518082610a429190611416565b42610a4d9190611458565b905060405180606001604052808473ffffffffffffffffffffffffffffffffffffffff16815260200182815260200160011515815250600160003373ffffffffffffffffffffffffffffffffffffffff1673ffffffffffffffffffffffffffffffffffffffff16815260200190815260200160002060008201518160000160006101000a81548173ffffffffffffffffffffffffffffffffffffffff021916908373ffffffffffffffffffffffffffffffffffffffff1602179055506020820151816001015560408201518160020160006101000a81548160ff0219169083151502179055509050508273ffffffffffffffffffffffffffffffffffffffff167f340c369ced7c3a65b67543c4f1e839173c42d01b38931b0c01b18c89a1d1ba4b82604051610b7c9190610d17565b60405180910390a2505050565b60016020528060005260406000206000915090508060000160009054906101000a900473ffffffffffffffffffffffffffffffffffffffff16908060010154908060020160009054906101000a900460ff16905083565b6000604051905090565b600080fd5b600080fd5b600073ffffffffffffffffffffffffffffffffffffffff82169050919050565b6000610c1f82610bf4565b9050919050565b610c2f81610c14565b8114610c3a57600080fd5b50565b600081359050610c4c81610c26565b92915050565b600060208284031215610c6857610c67610bea565b5b6000610c7684828501610c3d565b91505092915050565b6000819050919050565b610c9281610c7f565b8114610c9d57600080fd5b50565b600081359050610caf81610c89565b92915050565b600080600060608486031215610cce57610ccd610bea565b5b6000610cdc86828701610c3d565b9350506020610ced86828701610c3d565b9250506040610cfe86828701610ca0565b9150509250925092565b610d1181610c7f565b82525050565b6000602082019050610d2c6000830184610d08565b92915050565b60008060408385031215610d4957610d48610bea565b5b6000610d5785828601610c3d565b9250506020610d6885828601610ca0565b9150509250929050565b610d7b81610c14565b82525050565b60008115159050919050565b610d9681610d81565b82525050565b6000606082019050610db16000830186610d72565b610dbe6020830185610d08565b610dcb6040830184610d8d565b949350505050565b600082825260208201905092915050565b7f416d6f756e74206d7573742062652067726561746572207468616e2030000000600082015250565b6000610e1a601d83610dd3565b9150610e2582610de4565b602082019050919050565b60006020820190508181036000830152610e4981610e0d565b9050919050565b6000606082019050610e656000830186610d72565b610e726020830185610d72565b610e7f6040830184610d08565b949350505050565b610e9081610d81565b8114610e9b57600080fd5b50565b600081519050610ead81610e87565b92915050565b600060208284031215610ec957610ec8610bea565b5b6000610ed784828501610e9e565b91505092915050565b6000604082019050610ef56000830185610d72565b610f026020830184610d08565b9392505050565b7f4e487b7100000000000000000000000000000000000000000000000000000000600052604160045260246000fd5b7f4e487b7100000000000000000000000000000000000000000000000000000000600052603260045260246000fd5b600081519050919050565b600082825260208201905092915050565b6000819050602082019050919050565b610f9c81610c14565b82525050565b6000610fae8383610f93565b60208301905092915050565b6000602082019050919050565b6000610fd282610f67565b610fdc8185610f72565b9350610fe783610f83565b8060005b83811015611018578151610fff8882610fa2565b975061100a83610fba565b925050600181019050610feb565b5085935050505092915050565b600060408201905061103a6000830185610d08565b818103602083015261104c8184610fc7565b90509392505050565b600080fd5b6000601f19601f8301169050919050565b6110748261105a565b810181811067ffffffffffffffff8211171561109357611092610f09565b5b80604052505050565b60006110a6610be0565b90506110b2828261106b565b919050565b600067ffffffffffffffff8211156110d2576110d1610f09565b5b602082029050602081019050919050565b600080fd5b6000815190506110f781610c89565b92915050565b600061111061110b846110b7565b61109c565b90508083825260208201905060208402830185811115611133576111326110e3565b5b835b8181101561115c578061114888826110e8565b845260208401935050602081019050611135565b5050509392505050565b600082601f83011261117b5761117a611055565b5b815161118b8482602086016110fd565b91505092915050565b6000602082840312156111aa576111a9610bea565b5b600082015167ffffffffffffffff8111156111c8576111c7610bef565b5b6111d484828501611166565b91505092915050565b600060a0820190506111f26000830188610d08565b6111ff6020830187610d08565b81810360408301526112118186610fc7565b90506112206060830185610d72565b61122d6080830184610d08565b9695505050505050565b7f4e6f2061637469766520747275737420666f756e640000000000000000000000600082015250565b600061126d601583610dd3565b915061127882611237565b602082019050919050565b6000602082019050818103600083015261129c81611260565b9050919050565b7f547275737420706572696f642068617320657870697265640000000000000000600082015250565b60006112d9601883610dd3565b91506112e4826112a3565b602082019050919050565b60006020820190508181036000830152611308816112cc565b9050919050565b7f547275737420616c726561647920657869737473000000000000000000000000600082015250565b6000611345601483610dd3565b91506113508261130f565b602082019050919050565b6000602082019050818103600083015261137481611338565b9050919050565b7f496e76616c6964206d616e616765722061646472657373000000000000000000600082015250565b60006113b1601783610dd3565b91506113bc8261137b565b602082019050919050565b600060208201905081810360008301526113e0816113a4565b9050919050565b7f4e487b7100000000000000000000000000000000000000000000000000000000600052601160045260246000fd5b600061142182610c7f565b915061142c83610c7f565b925082820261143a81610c7f565b91508282048414831517611451576114506113e7565b5b5092915050565b600061146382610c7f565b915061146e83610c7f565b9250828201905080821115611486576114856113e7565b5b9291505056fea2646970667358221220f43e44c2c7cbec14009561dd73b2756f8f950a7855b163ab8764ad8b77d0449564736f6c634300081a0033",
  "devdoc": {
    "kind": "dev",
    "methods": {},
    "version": 1
  },
  "userdoc": {
    "kind": "user",
    "methods": {},
    "version": 1
  },
  "storageLayout": {
    "storage": [
      {
        "astId": 140,
        "contract": "contracts/ManagerContract.sol:ManagerContract",
        "label": "router",
        "offset": 0,
        "slot": "0",
        "type": "t_contract(ISwap)1233"
      },
      {
        "astId": 152,
        "contract": "contracts/ManagerContract.sol:ManagerContract",
        "label": "trusts",
        "offset": 0,
        "slot": "1",
        "type": "t_mapping(t_address,t_struct(Trust)147_storage)"
      }
    ],
    "types": {
      "t_address": {
        "encoding": "inplace",
        "label": "address",
        "numberOfBytes": "20"
      },
      "t_bool": {
        "encoding": "inplace",
        "label": "bool",
        "numberOfBytes": "1"
      },
      "t_contract(ISwap)1233": {
        "encoding": "inplace",
        "label": "contract ISwap",
        "numberOfBytes": "20"
      },
      "t_mapping(t_address,t_struct(Trust)147_storage)": {
        "encoding": "mapping",
        "key": "t_address",
        "label": "mapping(address => struct ManagerContract.Trust)",
        "numberOfBytes": "32",
        "value": "t_struct(Trust)147_storage"
      },
      "t_struct(Trust)147_storage": {
        "encoding": "inplace",
        "label": "struct ManagerContract.Trust",
        "members": [
          {
            "astId": 142,
            "contract": "contracts/ManagerContract.sol:ManagerContract",
            "label": "manager",
            "offset": 0,
            "slot": "0",
            "type": "t_address"
          },
          {
            "astId": 144,
            "contract": "contracts/ManagerContract.sol:ManagerContract",
            "label": "expiry",
            "offset": 0,
            "slot": "1",
            "type": "t_uint256"
          },
          {
            "astId": 146,
            "contract": "contracts/ManagerContract.sol:ManagerContract",
            "label": "isActive",
            "offset": 0,
            "slot": "2",
            "type": "t_bool"
          }
        ],
        "numberOfBytes": "96"
      },
      "t_uint256": {
        "encoding": "inplace",
        "label": "uint256",
        "numberOfBytes": "32"
      }
    }
  }
}